{
  "contractName": "Addendum",
  "abi": [
    {
      "inputs": [],
      "name": "owner",
      "outputs": [
        {
          "internalType": "address payable",
          "name": "",
          "type": "address"
        }
      ],
      "stateMutability": "view",
      "type": "function"
    },
    {
      "inputs": [
        {
          "internalType": "address",
          "name": "",
          "type": "address"
        }
      ],
      "name": "pendingOrders",
      "outputs": [
        {
          "internalType": "address",
          "name": "client",
          "type": "address"
        },
        {
          "internalType": "uint256",
          "name": "timeStart",
          "type": "uint256"
        },
        {
          "internalType": "uint256",
          "name": "timeEnd",
          "type": "uint256"
        }
      ],
      "stateMutability": "view",
      "type": "function"
    },
    {
      "inputs": [
        {
          "internalType": "address",
          "name": "desiredAddress",
          "type": "address"
        },
        {
          "internalType": "uint256",
          "name": "timeStart",
          "type": "uint256"
        },
        {
          "internalType": "uint256",
          "name": "timeEnd",
          "type": "uint256"
        }
      ],
      "name": "orderTranscript",
      "outputs": [],
      "stateMutability": "payable",
      "type": "function"
    }
  ],
  "bytecode": "0x608060405234801561001057600080fd5b5061048f806100206000396000f3fe6080604052600436106100345760003560e01c806354c0ae781461003957806374fedb97146100785780638da5cb5b14610094575b600080fd5b34801561004557600080fd5b50610060600480360381019061005b91906102e6565b6100bf565b60405161006f939291906103a6565b60405180910390f35b610092600480360381019061008d919061030f565b610109565b005b3480156100a057600080fd5b506100a9610298565b6040516100b6919061038b565b60405180910390f35b60016020528060005260406000206000915090508060000160009054906101000a900473ffffffffffffffffffffffffffffffffffffffff16908060010154908060020154905083565b66038d7ea4c6800034101561011d57600080fd5b60008054906101000a900473ffffffffffffffffffffffffffffffffffffffff1673ffffffffffffffffffffffffffffffffffffffff166108fc349081150290604051600060405180830381858888f19350505050158015610183573d6000803e3d6000fd5b5082600160003373ffffffffffffffffffffffffffffffffffffffff1673ffffffffffffffffffffffffffffffffffffffff16815260200190815260200160002060000160006101000a81548173ffffffffffffffffffffffffffffffffffffffff021916908373ffffffffffffffffffffffffffffffffffffffff16021790555081600160003373ffffffffffffffffffffffffffffffffffffffff1673ffffffffffffffffffffffffffffffffffffffff1681526020019081526020016000206001018190555080600160003373ffffffffffffffffffffffffffffffffffffffff1673ffffffffffffffffffffffffffffffffffffffff16815260200190815260200160002060020181905550505050565b60008054906101000a900473ffffffffffffffffffffffffffffffffffffffff1681565b6000813590506102cb8161042b565b92915050565b6000813590506102e081610442565b92915050565b6000602082840312156102f857600080fd5b6000610306848285016102bc565b91505092915050565b60008060006060848603121561032457600080fd5b6000610332868287016102bc565b9350506020610343868287016102d1565b9250506040610354868287016102d1565b9150509250925092565b610367816103ef565b82525050565b610376816103dd565b82525050565b61038581610421565b82525050565b60006020820190506103a0600083018461035e565b92915050565b60006060820190506103bb600083018661036d565b6103c8602083018561037c565b6103d5604083018461037c565b949350505050565b60006103e882610401565b9050919050565b60006103fa82610401565b9050919050565b600073ffffffffffffffffffffffffffffffffffffffff82169050919050565b6000819050919050565b610434816103dd565b811461043f57600080fd5b50565b61044b81610421565b811461045657600080fd5b5056fea2646970667358221220cfb1d64bf4a4f893d9310beed8f2c92c5f1e2818cb6c8b46d7fada815fcf490464736f6c63430008040033",
  "immutableReferences": {},
  "source": "// SPDX-License-Identifier: MIT\npragma solidity 0.8.4;\n\ncontract Addendum {\n  \n  address payable public owner;\n\n  struct Order{\n    address client;\n    uint timeStart;\n    uint timeEnd;    \n  }\n\n  mapping (address => Order) public pendingOrders;\n\n  function orderTranscript(\n    address desiredAddress, \n    uint timeStart, \n    uint timeEnd\n    ) public payable {\n    require (msg.value >= 0.001 ether);\n    owner.transfer(msg.value);\n\n    pendingOrders[msg.sender].client = desiredAddress;\n    pendingOrders[msg.sender].timeStart = timeStart;\n    pendingOrders[msg.sender].timeEnd = timeEnd;\n  }\n\n}\n",
  "sourcePath": "/home/dougy/Code/Crypto/Projects/Addendum/contracts/Addendum.sol",
  "compiler": {
    "name": "solc",
    "version": "0.8.4+commit.c7e474f2.Emscripten.clang"
  },
  "schemaVersion": "3.3.3",
  "updatedAt": "2021-05-01T10:41:06.626Z",
  "devdoc": {
    "kind": "dev",
    "methods": {},
    "version": 1
  },
  "userdoc": {
    "kind": "user",
    "methods": {},
    "version": 1
  }
}